:100000000C942A000C9447000C9447000C9449006F
:100010000C9447000C9447000C9447000C9481000A
:100020000C9447000C9447000C9490000C944700EB
:100030000C9447000C9447000C9447000C94470024
:100040000C9447000C9447000C9447000C94470014
:100050000C94470011241FBECFE5D8E0DEBFCDBF12
:1000600010E0A0E6B0E0EAEBF9E002C005900D92E6
:10007000AA36B107D9F720E0AAE6B0E001C01D9288
:10008000AB38B207E1F70E94BE000C94DB040C947D
:1000900000001F920F920FB60F9211242F933F93DF
:1000A0004F935F936F937F938F939F93AF93BF9380
:1000B000EF93FF9380916D0081110DC081E08093DB
:1000C0006D0080E090E00E94340390E09093700017
:1000D00080936F0005C08150823010F410926D0043
:1000E000FF91EF91BF91AF919F918F917F916F9110
:1000F0005F914F913F912F910F900FBE0F901F90E6
:1001000018951F920F920FB60F9211248F9381E0D2
:10011000809376008F910F900FBE0F901F901895CF
:100120001F920F920FB60F9211242F933F938F932C
:100130009F9380916D0081508230B8F480916E0061
:100140008F5F80936E00982F937051F420916B0015
:1001500030916C0091E0292730936C0020936B0064
:10016000853118F081E080936D009F918F913F91D0
:100170002F910F900FBE0F901F9018950E94E401D1
:1001800080916D00813021F030F0823039F0F8CF6D
:100190000E948001F5CF0E942402F2CF0E94D1007C
:1001A000EFCF0E947B020E947F020E948E0280910C
:1001B0006B0090916C00019739F480916F009091E1
:1001C00070000E94BE0202C00E94BC020E9449024E
:1001D000813089F480916F00909170008B3491058B
:1001E00050F405969093700080936F0010926E000B
:1001F0000E94BE0214C00E945A02813081F4809194
:100200006F00909170008432910548F005979093AB
:10021000700080936F0010926E000E94BE02609189
:100220006F0080E090E00E943B030895809174008D
:1002300090917500AC014B5F5F4F20916F00309142
:1002400070002417350768F4BC0165507109621706
:10025000730738F40E947B020E947F020E948E0284
:1002600008952417350738F40E947B020E94770214
:100270000E948A02089505978217930778F40E94D6
:1002800073020E947F0280916B0090916C00019735
:1002900019F40E948A0208950E948E020895209106
:1002A0006A0030E0220F331F820F931FFC0171831D
:1002B000608380916A008F5F80936A008A3011F4B6
:1002C00010926A000895BC0190E020E030E00BC07D
:1002D000E92FF0E0EE0FFF1FE60FF71F408151817D
:1002E000240F351F9F5F9A3098F3ADECBCEC0E9451
:1002F000B8049695879596958795969587950895D0
:1003000080917600813009F50E942503BC0180E0D0
:1003100090E00E94A90320E93EE34AEF5EE30E94D9
:100320000F040E947A03709372006093710087E754
:1003300090E00E944F0187E790E00E946301909354
:1003400075008093740010927600809171009091F6
:1003500072000E94BE020E9416010E944902813072
:1003600021F00E945A02813039F40E94AA021092B0
:100370006E0082E080936D0008950E942503BC0109
:1003800080E090E00E94A90320E93EE34AEF5EE3AB
:100390000E940F040E947A0380E009C0E82FF0E079
:1003A000EE0FFF1FE958FF4F718360838F5F8A3024
:1003B000A8F387E790E00E94630190937500809313
:1003C000740010926A0008950E9403030E942F0295
:1003D0000E946F020E946B020E9483020E94B1027F
:1003E0000E9466030E9455030E94760310926D00DE
:1003F00080E090E00E9434038F3F51F080E090E075
:100400000E94340390E09093700080936F0006C0C8
:100410008CE390E09093700080936F000E94BD0188
:1004200060916F0080E090E00E943B03089585B7E3
:100430008F7E85BF85B78F7D85BF85B78F7B85BF55
:1004400085B7806885BF08950E94BC020E948E0215
:100450000E947B020E947F020E941702089587B3C8
:100460008B7F87BB87B38D7F87BB87B3877F87BB36
:1004700088B3846088BB88B3826088BB88B3886097
:1004800088BB789484B7806484BF8BB780628BBF4D
:10049000089596B3892F827091FD0AC0EFE3FCE9BD
:1004A0003197F1F700C00000B19903C081E00895D1
:1004B00080E0089596B3892F887093FD0AC0EFE31A
:1004C000FCE93197F1F700C00000B39903C081E067
:1004D000089580E0089587B3806187BB089587B34E
:1004E000806287BB089588B3806188BB089588B314
:1004F000806288BB089588B38F7E88BB089588B3D7
:100500008F7D88BB089587B3816087BB88B38E7F5A
:1005100088BB089588B3816088BB089588B38E7FB7
:1005200088BB0895805A9F4FFC01808182BB08954B
:10053000813039F488B3806488BB88B38F7788BBF7
:100540000895823031F488B3806888BB88B38F7B8C
:1005500088BB089588B38F7B88BB88B38F7788BBAF
:1005600008958FEF81BB87B3806487BB87B38068B2
:1005700087BB0E94AA02089512BA08950F931F9391
:10058000CF93DF93AC019C01ADECBCEC0E94B804AE
:10059000EC01D695C795D695C795D695C795CE014A
:1005A000880F991FCC0FDD1FCC0FDD1FCC0FDD1F77
:1005B000C80FD91FCA018C1B9D0BEC01CA016AE050
:1005C00070E00E94A4048B0181E00E949802CE0199
:1005D00099270E9492028FEC97E00197F1F700C0F3
:1005E000000082E00E949802C80199270E949202AE
:1005F0008FEC97E00197F1F700C00000DF91CF91F9
:100600001F910F91089587B1806487B987B18E7F5C
:1006100087B987B18D7F87B987B18B7F87B987B15C
:10062000877F87B987B18F7E87B987B18F7D87B97B
:1006300086B1816086B986B18D7F86B986B18B7FA0
:1006400086B986B1806886B9089586B1806486B916
:10065000309BFECF34B185B190E0982F882726B12A
:10066000206126B9832B08958EBB9FBB8CB381601C
:100670008CBB8DB308958EBB9FBB6DBB0FB607FEC1
:1006800005C08FB78F778FBF91E001C090E08CB32A
:1006900084608CBB8CB382608CBBE199FECF9130BF
:1006A00019F48FB780688FBF08958EB588608EBDAE
:1006B0001BBC82E68ABD8EB581608EBD8EB58D7FF6
:1006C0008EBD8EB584608EBD7894089583B78860A2
:1006D00083BF8AEF8CBF83B7816083BF83B7846099
:1006E00083BF789489B7826089BF089589B7806194
:1006F00089BF08950E94EE0388F09F5798F0B92FA4
:100700009927B751B0F0E1F0660F771F881F991F46
:100710001AF0BA95C9F714C0B13091F00E940804DC
:10072000B1E008950C940804672F782F8827B85FEC
:1007300039F0B93FCCF3869577956795B395D9F79E
:100740003EF490958095709561957F4F8F4F9F4FA8
:100750000895E89409C097FB3EF4909580957095B4
:1007600061957F4F8F4F9F4F9923A9F0F92F96E9FD
:10077000BB279395F695879577956795B795F11172
:10078000F8CFFAF4BB0F11F460FF1BC06F5F7F4F0F
:100790008F4F9F4F16C0882311F096E911C0772321
:1007A00021F09EE8872F762F05C0662371F096E82A
:1007B000862F70E060E02AF09A95660F771F881FF9
:1007C000DAF7880F9695879597F9089557FD905811
:1007D000440F551F59F05F3F71F04795880F97FB05
:1007E000991F61F09F3F79F08795089512161306BF
:1007F0001406551FF2CF4695F1DF08C016161706EE
:100800001806991FF1CF8695710561050894089522
:10081000E894BB2766277727CB0197F908950E94B4
:1008200022040C9493040E94850438F00E948C04E6
:1008300020F0952311F00C947C040C948204112474
:100840000C9409040E94E60370F3959FC1F3950F81
:1008500050E0551F629FF001729FBB27F00DB11D44
:10086000639FAA27F00DB11DAA1F649F6627B00DD4
:10087000A11D661F829F2227B00DA11D621F739FBD
:10088000B00DA11D621F839FA00D611D221F749FCB
:100890003327A00D611D231F849F600D211D822F12
:1008A000762F6A2F11249F5750409AF0F1F0882339
:1008B0004AF0EE0FFF1FBB1F661F771F881F915066
:1008C0005040A9F79E3F510580F00C947C040C9495
:1008D00009045F3FE4F3983ED4F3869577956795D6
:1008E000B795F795E7959F5FC1F7FE2B880F911D90
:1008F0009695879597F9089597F99F6780E870E036
:1009000060E008959FEF80EC089500240A94161685
:10091000170618060906089500240A9412161306ED
:10092000140605060895092E0394000C11F488237B
:1009300052F0BB0F40F4BF2B11F460FF04C06F5F97
:100940007F4F8F4F9F4F089597FB072E16F400940B
:1009500007D077FD09D00E94C70407FC05D03EF4FC
:10096000909581959F4F0895709561957F4F08955B
:10097000A29FB001B39FC001A39F700D811D1124E0
:10098000911DB29F700D811D1124911D0895AA1B08
:10099000BB1B51E107C0AA1FBB1FA617B70710F06A
:1009A000A61BB70B881F991F5A95A9F7809590959C
:0A09B000BC01CD010895F894FFCFBB
:0A09BA003F065B4F666D7D077F6FFF
:00000001FF
